{
  "address": "0x3b1c2D1291FA131C693eBA2F61655d4932EDd408",
  "abi": [
    {
      "inputs": [
        {
          "internalType": "contract INonfungiblePositionManager",
          "name": "positionManager",
          "type": "address"
        },
        {
          "internalType": "uint256",
          "name": "tokenId",
          "type": "uint256"
        }
      ],
      "name": "getPosition",
      "outputs": [
        {
          "components": [
            {
              "internalType": "uint256",
              "name": "tokenId",
              "type": "uint256"
            },
            {
              "internalType": "uint96",
              "name": "nonce",
              "type": "uint96"
            },
            {
              "internalType": "address",
              "name": "operator",
              "type": "address"
            },
            {
              "internalType": "address",
              "name": "token0",
              "type": "address"
            },
            {
              "internalType": "address",
              "name": "token1",
              "type": "address"
            },
            {
              "internalType": "uint24",
              "name": "fee",
              "type": "uint24"
            },
            {
              "internalType": "int24",
              "name": "tickLower",
              "type": "int24"
            },
            {
              "internalType": "int24",
              "name": "tickUpper",
              "type": "int24"
            },
            {
              "internalType": "uint128",
              "name": "liquidity",
              "type": "uint128"
            },
            {
              "internalType": "uint256",
              "name": "feeGrowthInside0LastX128",
              "type": "uint256"
            },
            {
              "internalType": "uint256",
              "name": "feeGrowthInside1LastX128",
              "type": "uint256"
            },
            {
              "internalType": "uint128",
              "name": "tokensOwed0",
              "type": "uint128"
            },
            {
              "internalType": "uint128",
              "name": "tokensOwed1",
              "type": "uint128"
            }
          ],
          "internalType": "struct Position",
          "name": "position",
          "type": "tuple"
        }
      ],
      "stateMutability": "view",
      "type": "function"
    },
    {
      "inputs": [
        {
          "internalType": "contract INonfungiblePositionManager",
          "name": "positionManager",
          "type": "address"
        },
        {
          "internalType": "uint256[]",
          "name": "tokenIds",
          "type": "uint256[]"
        }
      ],
      "name": "getPositions",
      "outputs": [
        {
          "components": [
            {
              "internalType": "uint256",
              "name": "tokenId",
              "type": "uint256"
            },
            {
              "internalType": "uint96",
              "name": "nonce",
              "type": "uint96"
            },
            {
              "internalType": "address",
              "name": "operator",
              "type": "address"
            },
            {
              "internalType": "address",
              "name": "token0",
              "type": "address"
            },
            {
              "internalType": "address",
              "name": "token1",
              "type": "address"
            },
            {
              "internalType": "uint24",
              "name": "fee",
              "type": "uint24"
            },
            {
              "internalType": "int24",
              "name": "tickLower",
              "type": "int24"
            },
            {
              "internalType": "int24",
              "name": "tickUpper",
              "type": "int24"
            },
            {
              "internalType": "uint128",
              "name": "liquidity",
              "type": "uint128"
            },
            {
              "internalType": "uint256",
              "name": "feeGrowthInside0LastX128",
              "type": "uint256"
            },
            {
              "internalType": "uint256",
              "name": "feeGrowthInside1LastX128",
              "type": "uint256"
            },
            {
              "internalType": "uint128",
              "name": "tokensOwed0",
              "type": "uint128"
            },
            {
              "internalType": "uint128",
              "name": "tokensOwed1",
              "type": "uint128"
            }
          ],
          "internalType": "struct Position[]",
          "name": "positions",
          "type": "tuple[]"
        }
      ],
      "stateMutability": "view",
      "type": "function"
    },
    {
      "inputs": [
        {
          "internalType": "contract INonfungiblePositionManager",
          "name": "positionManager",
          "type": "address"
        },
        {
          "internalType": "address",
          "name": "user",
          "type": "address"
        },
        {
          "internalType": "uint256",
          "name": "skip",
          "type": "uint256"
        },
        {
          "internalType": "uint256",
          "name": "first",
          "type": "uint256"
        }
      ],
      "name": "getUserPositions",
      "outputs": [
        {
          "components": [
            {
              "internalType": "uint256",
              "name": "tokenId",
              "type": "uint256"
            },
            {
              "internalType": "uint96",
              "name": "nonce",
              "type": "uint96"
            },
            {
              "internalType": "address",
              "name": "operator",
              "type": "address"
            },
            {
              "internalType": "address",
              "name": "token0",
              "type": "address"
            },
            {
              "internalType": "address",
              "name": "token1",
              "type": "address"
            },
            {
              "internalType": "uint24",
              "name": "fee",
              "type": "uint24"
            },
            {
              "internalType": "int24",
              "name": "tickLower",
              "type": "int24"
            },
            {
              "internalType": "int24",
              "name": "tickUpper",
              "type": "int24"
            },
            {
              "internalType": "uint128",
              "name": "liquidity",
              "type": "uint128"
            },
            {
              "internalType": "uint256",
              "name": "feeGrowthInside0LastX128",
              "type": "uint256"
            },
            {
              "internalType": "uint256",
              "name": "feeGrowthInside1LastX128",
              "type": "uint256"
            },
            {
              "internalType": "uint128",
              "name": "tokensOwed0",
              "type": "uint128"
            },
            {
              "internalType": "uint128",
              "name": "tokensOwed1",
              "type": "uint128"
            }
          ],
          "internalType": "struct Position[]",
          "name": "positions",
          "type": "tuple[]"
        }
      ],
      "stateMutability": "view",
      "type": "function"
    }
  ],
  "transactionHash": "0x2ebed90bc5ed73bacf3b96c6631817a0873200bf3766a47d1cc8f16b8fd01da2",
  "args": [],
  "numDeployments": 1,
  "solcInputHash": "c980441f0f4e5c0953cb4966679515a3",
  "bytecode": "0x608060405234801561001057600080fd5b5061137d806100206000396000f3fe608060405234801561001057600080fd5b50600436106100415760003560e01c80633adbb5af1461004657806391ade4471461006f578063a33f97fe1461008f575b600080fd5b61005961005436600461101a565b6100a2565b6040516100669190611306565b60405180910390f35b61008261007d366004610f53565b6102b1565b60405161006691906112b7565b61008261009d366004610f98565b6104d8565b6100aa610e97565b6000806000806000806000806000806000808e73ffffffffffffffffffffffffffffffffffffffff166399fbab888f6040518263ffffffff1660e01b81526004016100f5919061131b565b6101806040518083038186803b15801561010e57600080fd5b505afa158015610122573d6000803e3d6000fd5b505050506040513d601f19601f82011682018060405250810190610146919061105d565b9b509b509b509b509b509b509b509b509b509b509b509b50604051806101a001604052808f81526020018d6bffffffffffffffffffffffff1681526020018c73ffffffffffffffffffffffffffffffffffffffff1681526020018b73ffffffffffffffffffffffffffffffffffffffff1681526020018a73ffffffffffffffffffffffffffffffffffffffff1681526020018962ffffff1681526020018860020b81526020018760020b8152602001866fffffffffffffffffffffffffffffffff168152602001858152602001848152602001836fffffffffffffffffffffffffffffffff168152602001826fffffffffffffffffffffffffffffffff168152509c50505050505050505050505050600080610262858561057e565b9150915061026f82610773565b6fffffffffffffffffffffffffffffffff1661016084015261029081610773565b6fffffffffffffffffffffffffffffffff1661018084015250909392505050565b606060008573ffffffffffffffffffffffffffffffffffffffff166370a08231866040518263ffffffff1660e01b81526004016102ee9190611270565b60206040518083038186803b15801561030657600080fd5b505afa15801561031a573d6000803e3d6000fd5b505050506040513d601f19601f8201168201806040525081019061033e9190611045565b9050808410610381576040805160008082526020820190925290610378565b610365610e97565b81526020019060019003908161035d5790505b509150506104d0565b83810360008482106103935784610395565b815b90508067ffffffffffffffff811180156103ae57600080fd5b506040519080825280602002602001820160405280156103e857816020015b6103d5610e97565b8152602001906001900390816103cd5790505b50935060005b818110156104cb576040517f2f745c5900000000000000000000000000000000000000000000000000000000815260009073ffffffffffffffffffffffffffffffffffffffff8b1690632f745c599061044f908c908c870190600401611291565b60206040518083038186803b15801561046757600080fd5b505afa15801561047b573d6000803e3d6000fd5b505050506040513d601f19601f8201168201806040525081019061049f9190611045565b90506104ab8a826100a2565b8683815181106104b757fe5b6020908102919091010152506001016103ee565b505050505b949350505050565b6060818067ffffffffffffffff811180156104f257600080fd5b5060405190808252806020026020018201604052801561052c57816020015b610519610e97565b8152602001906001900390816105115790505b50915060005b81811015610575576105568686868481811061054a57fe5b905060200201356100a2565b83828151811061056257fe5b6020908102919091010152600101610532565b50509392505050565b6000806000806000806000806000806000808d73ffffffffffffffffffffffffffffffffffffffff166399fbab888e6040518263ffffffff1660e01b8152600401808281526020019150506101806040518083038186803b1580156105e257600080fd5b505afa1580156105f6573d6000803e3d6000fd5b505050506040513d61018081101561060d57600080fd5b810190808051906020019092919080519060200190929190805190602001909291908051906020019092919080519060200190929190805190602001909291908051906020019092919080519060200190929190805190602001909291908051906020019092919080519060200190929190805190602001909291905050506fffffffffffffffffffffffffffffffff169b506fffffffffffffffffffffffffffffffff169b509b509b509b509b509b509b509b509b50505061075e8e6040518061014001604052808d73ffffffffffffffffffffffffffffffffffffffff1681526020018c73ffffffffffffffffffffffffffffffffffffffff1681526020018b62ffffff1681526020018a60020b81526020018960020b8152602001886fffffffffffffffffffffffffffffffff168152602001878152602001868152602001858152602001848152506107e6565b9b509b50505050505050505050509250929050565b600070010000000000000000000000000000000082106107de576040517f08c379a000000000000000000000000000000000000000000000000000000000815260040180806020018281038252602781526020018061134a6027913960400191505060405180910390fd5b50805b919050565b6000806000806108bb6108ac8773ffffffffffffffffffffffffffffffffffffffff1663c45a01556040518163ffffffff1660e01b815260040160206040518083038186803b15801561083857600080fd5b505afa15801561084c573d6000803e3d6000fd5b505050506040513d602081101561086257600080fd5b505160408051606081018252895173ffffffffffffffffffffffffffffffffffffffff908116825260208b810151909116908201528982015162ffffff169181019190915261094a565b86606001518760800151610a80565b915091508461010001516108fd8660c0015184038760a001516fffffffffffffffffffffffffffffffff16700100000000000000000000000000000000610dc9565b01935084610120015161093e8660e0015183038760a001516fffffffffffffffffffffffffffffffff16700100000000000000000000000000000000610dc9565b01925050509250929050565b6000816020015173ffffffffffffffffffffffffffffffffffffffff16826000015173ffffffffffffffffffffffffffffffffffffffff161061098c57600080fd5b508051602080830151604093840151845173ffffffffffffffffffffffffffffffffffffffff94851681850152939091168385015262ffffff166060808401919091528351808403820181526080840185528051908301207fff0000000000000000000000000000000000000000000000000000000000000060a085015294901b7fffffffffffffffffffffffffffffffffffffffff0000000000000000000000001660a183015260b58201939093527fe34f199b19b2b4f47f68442619d555527d244f78a3297ea89325f843f87b8b5460d5808301919091528251808303909101815260f5909101909152805191012090565b60008060008573ffffffffffffffffffffffffffffffffffffffff16633850c7bd6040518163ffffffff1660e01b815260040160e06040518083038186803b158015610acb57600080fd5b505afa158015610adf573d6000803e3d6000fd5b505050506040513d60e0811015610af557600080fd5b5060200151604080517ff30dba93000000000000000000000000000000000000000000000000000000008152600288900b60048201529051919250600091829173ffffffffffffffffffffffffffffffffffffffff8a169163f30dba939160248082019261010092909190829003018186803b158015610b7457600080fd5b505afa158015610b88573d6000803e3d6000fd5b505050506040513d610100811015610b9f57600080fd5b5060408082015160609092015181517ff30dba9300000000000000000000000000000000000000000000000000000000815260028a900b600482015291519294509250600091829173ffffffffffffffffffffffffffffffffffffffff8c169163f30dba939160248082019261010092909190829003018186803b158015610c2657600080fd5b505afa158015610c3a573d6000803e3d6000fd5b505050506040513d610100811015610c5157600080fd5b5060408101516060909101519092509050600289810b9086900b1215610c805781840396508083039550610dbc565b8760020b8560020b1215610db15760008a73ffffffffffffffffffffffffffffffffffffffff1663f30583996040518163ffffffff1660e01b815260040160206040518083038186803b158015610cd657600080fd5b505afa158015610cea573d6000803e3d6000fd5b505050506040513d6020811015610d0057600080fd5b5051604080517f46141319000000000000000000000000000000000000000000000000000000008152905191925060009173ffffffffffffffffffffffffffffffffffffffff8e16916346141319916004808301926020929190829003018186803b158015610d6e57600080fd5b505afa158015610d82573d6000803e3d6000fd5b505050506040513d6020811015610d9857600080fd5b5051918690038490039850508390038190039550610dbc565b838203965082810395505b5050505050935093915050565b600080807fffffffffffffffffffffffffffffffffffffffffffffffffffffffffffffffff85870986860292508281109083900303905080610e1d5760008411610e1257600080fd5b508290049050610e90565b808411610e2957600080fd5b6000848688096000868103871696879004966002600389028118808a02820302808a02820302808a02820302808a02820302808a02820302808a02909103029181900381900460010186841190950394909402919094039290920491909117919091029150505b9392505050565b604080516101a081018252600080825260208201819052918101829052606081018290526080810182905260a0810182905260c0810182905260e08101829052610100810182905261012081018290526101408101829052610160810182905261018081019190915290565b80516107e181611324565b8051600281900b81146107e157600080fd5b80516fffffffffffffffffffffffffffffffff811681146107e157600080fd5b805162ffffff811681146107e157600080fd5b60008060008060808587031215610f68578384fd5b8435610f7381611324565b93506020850135610f8381611324565b93969395505050506040820135916060013590565b600080600060408486031215610fac578283fd5b8335610fb781611324565b9250602084013567ffffffffffffffff80821115610fd3578384fd5b818601915086601f830112610fe6578384fd5b813581811115610ff4578485fd5b8760208083028501011115611007578485fd5b6020830194508093505050509250925092565b6000806040838503121561102c578182fd5b823561103781611324565b946020939093013593505050565b600060208284031215611056578081fd5b5051919050565b6000806000806000806000806000806000806101808d8f03121561107f578788fd5b8c516bffffffffffffffffffffffff8116811461109a578889fd5b9b506110a860208e01610f03565b9a506110b660408e01610f03565b99506110c460608e01610f03565b98506110d260808e01610f40565b97506110e060a08e01610f0e565b96506110ee60c08e01610f0e565b95506110fc60e08e01610f20565b94506101008d015193506101208d0151925061111b6101408e01610f20565b915061112a6101608e01610f20565b90509295989b509295989b509295989b565b73ffffffffffffffffffffffffffffffffffffffff169052565b60020b9052565b805182526020810151611173602084018261125e565b506040810151611186604084018261113c565b506060810151611199606084018261113c565b5060808101516111ac608084018261113c565b5060a08101516111bf60a0840182611255565b5060c08101516111d260c0840182611156565b5060e08101516111e560e0840182611156565b50610100808201516111f98285018261123f565b505061012081810151908301526101408082015190830152610160808201516112248285018261123f565b5050610180808201516112398285018261123f565b50505050565b6fffffffffffffffffffffffffffffffff169052565b62ffffff169052565b6bffffffffffffffffffffffff169052565b73ffffffffffffffffffffffffffffffffffffffff91909116815260200190565b73ffffffffffffffffffffffffffffffffffffffff929092168252602082015260400190565b6020808252825182820181905260009190848201906040850190845b818110156112fa576112e683855161115d565b928401926101a092909201916001016112d3565b50909695505050505050565b6101a08101611315828461115d565b92915050565b90815260200190565b73ffffffffffffffffffffffffffffffffffffffff8116811461134657600080fd5b5056fe53616665436173743a2076616c756520646f65736e27742066697420696e203132382062697473a164736f6c6343000706000a",
  "devdoc": {
    "kind": "dev",
    "methods": {
      "getPosition(address,uint256)": {
        "params": {
          "positionManager": "The NonfungiblePositionManager address",
          "tokenId": "The tokenId of the position"
        },
        "returns": {
          "position": "      The full Position struct with tokensOwed0/1 patched"
        }
      },
      "getPositions(address,uint256[])": {
        "params": {
          "positionManager": "The NonfungiblePositionManager address",
          "tokenIds": "Array of position tokenIds"
        },
        "returns": {
          "positions": "     Array of full Position structs with updated fees"
        }
      },
      "getUserPositions(address,address,uint256,uint256)": {
        "params": {
          "first": "Maximum number of positions to return",
          "positionManager": "The NonfungiblePositionManager",
          "skip": "Number of positions to skip from the start of the list",
          "user": "Owner address whose positions to query"
        },
        "returns": {
          "positions": "      Array of Position structs (at most `first` long)"
        }
      }
    },
    "title": "V3PositionHelper",
    "version": 1
  },
  "userdoc": {
    "kind": "user",
    "methods": {
      "getPosition(address,uint256)": {
        "notice": "Returns a single position with up-to-date fees owed"
      },
      "getPositions(address,uint256[])": {
        "notice": "Returns multiple positions with live fee updates"
      },
      "getUserPositions(address,address,uint256,uint256)": {
        "notice": "Returns paginated positions owned by `user`, with live fee updates"
      }
    },
    "notice": "Helper contract to fetch Uniswap V3 positions with live fee accruals.",
    "version": 1
  },
  "storageLayout": {
    "storage": [],
    "types": null
  }
}